:100000000C942A000C9447000C9447000C94470071
:100010000C9447000C9447000C9447000C94470044
:100020000C9447000C9447000C9447000C94470034
:100030000C9447000C9447000C9447000C94470024
:100040000C9447000C9447000C9447000C94470014
:100050000C94470011241FBECFE5D8E0DEBFCDBF12
:1000600010E0A0E6B0E0E8EEFBE002C005900D92E3
:10007000AA3DB107D9F720E0AAEDB0E001C01D927A
:10008000AB3DB207E1F70E941F030C94F2050C94FC
:100090000000CF92DF92EF92FF920F931F93CF93C6
:1000A000DF9304E610E0C0E6D0E00F2EF4E6CF2E9A
:1000B000F0E0DF2EF02DF80161918F0141E082E048
:1000C0000E946F037E0140E0699182E00E946F030D
:1000D00041E0F701608182E00E94B004CC15DD05AB
:1000E00051F7DF91CF911F910F91FF90EF90DF902B
:1000F000CF9008956F927F928F929F92AF92BF920E
:10010000CF92DF92EF92FF920F931F93CF93DF93E3
:100110000F2EF4E6EF2EF0E0FF2EF02D08E610E0B3
:10012000E701699141E082E00E94F703C017D1071F
:10013000C1F7C12CD12C4601570140E0F701608185
:1001400082E00E94F703C0E6D0E0612C712C8301AD
:10015000699182E00E947B0481110BC0000F111F86
:10016000000F111F06591F4FF801E80DF91D80817E
:1001700018C0FFEF6F1A7F0A84E06816710439F720
:10018000EFEFEE1AFE0A41E0F501608182E00E9485
:10019000F703FFEFCF1ADF0A84E0C816D10459F63F
:1001A0008FE3DF91CF911F910F91FF90EF90DF9040
:1001B000CF90BF90AF909F908F907F906F90089559
:1001C000EF92FF920F931F93CF93DF93E82E40E0BF
:1001D00061E081E00E94F70341E062E081E00E947B
:1001E000F703C4E0D0E0F12C8701A7010C2E02C078
:1001F000559547950A94E2F741706C2F81E00E9473
:10020000F7032196C830D10579F741E060E081E03D
:100210000E94F70362E070E080E090E00E94B70285
:1002200040E060E081E00E94F703C4E0E12CF12CA3
:10023000A8010E2C02C0559547950A94E2F741702B
:100240006C2F81E00E94F7038FEFE81AF80ACF5F66
:10025000C83071F741E060E081E00E94F70362E09E
:1002600070E080E090E00E94B70240E060E081E052
:100270000E94F703DF91CF911F910F91FF90EF90B4
:100280000895EF92FF920F931F93CF93DF93E82E81
:1002900040E061E081E00E94F70340E062E081E03D
:1002A0000E94F703C4E0D0E0F12C8701A7010C2ED7
:1002B00002C0559547950A94E2F741706C2F81E092
:1002C0000E94F7032196C830D10579F741E060E03C
:1002D00081E00E94F70362E070E080E090E00E941D
:1002E000B70240E060E081E00E94F703C4E0E12C47
:1002F000F12CA8010E2C02C0559547950A94E2F7FF
:1003000041706C2F81E00E94F7038FEFE81AF80A22
:10031000CF5FC83071F741E060E081E00E94F703F1
:1003200062E070E080E090E00E94B70240E060E0B0
:1003300081E00E94F703DF91CF911F910F91FF9011
:10034000EF900895EF92FF920F931F93CF93DF9357
:1003500041E062E081E00E946F0341E061E081E002
:100360000E946F0341E060E081E00E946F0361E062
:1003700081E00E94530362E370E080E090E00E941D
:10038000B702809168008B7F88608093680082E26A
:100390000E944101809168000E94410161E070E08B
:1003A00080E090E00E94B702809169000E944101C4
:1003B00061E070E080E090E00E94B70281E00E947E
:1003C000410162E070E080E090E00E94B70286E0C8
:1003D0000E94410162E070E080E090E00E94B7027C
:1003E00080E40E944101CAE7D0E00F2EFAEBEF2E25
:1003F000F0E0FF2EF02D0AC089910E94E000C017A6
:10040000D107D1F7E801E016F10621F08E01085F6F
:100410001F4FF2CF80E80E944101DF91CF911F91E1
:100420000F91FF90EF900895813019F0823029F0FC
:10043000089580E80E944101089580EC0E944101E6
:1004400008958A3020F4805D0E94E00008950E94A3
:10045000E0000895BF92CF92DF92EF92FF920F9348
:100460001F93CF93DF93EC01611148C0C880D980FE
:10047000EA80FB80C114D104E104F10421F480E09E
:100480000E94210246C0D0E019E0C12FCD1B6C2F85
:100490008AE00E94FC029B01AC01C701B6010E94E8
:1004A0006405232B242B252B29F1DA3090F56C2FB2
:1004B0008AE00E94FC029B01AC01C701B6010E94C8
:1004C0006405B62E072F182FD92F6C2F8AE00E94B3
:1004D000FC029B01AC01C701B6010E946405822F9A
:1004E0000E942102C150CB2CD02EE12EFD2ECF3FF9
:1004F000F1F60FC0DF5FDA3041F60BC0613049F42E
:100500008881882331F021960E94210289918111EE
:10051000FBCFDF91CF911F910F91FF90EF90DF9074
:10052000CF90BF900895811106C0809169008D7FA2
:100530008093690005C080916900826080936900A2
:10054000809169000E9441010895811106C0809147
:1005500069008E7F8093690005C080916900816089
:1005600080936900809169000E94410108958F92F3
:100570009F92AF92BF92CF92DF92EF92FF920F9332
:100580009B01AC0160EA76E881E090E00E945405AE
:10059000665679408109910929EB35E749E757E02B
:1005A0000E94910500E20E94BE05822E932EA42E89
:1005B000B52EB694A79497948794B694A7949794DD
:1005C000879481149104A104B10461F080E090E06B
:1005D000DC0100000196A11DB11D88169906AA062E
:1005E000BB06B9F70F91FF90EF90DF90CF90BF90CF
:1005F000AF909F908F900895CF92DF92EF92FF92ED
:10060000C82EF62F662391F0E0E061E070E080E014
:1006100090E0D12CE12CF12C9B01AC01C701B6017B
:100620000E945405EF5FFE13F7CF04C061E070E055
:1006300080E090E0FF90EF90DF90CF9008950E94CF
:1006400034050E94A2010E94490080E00E949302AA
:1006500080E00E94A50261E08AEB90E00E942A02FD
:1006600080EA9FE00E944805D82F0E947A00C82F98
:100670008A3008F4C05D82E00E94140261E088ECD8
:1006800090E00E942A0282E00E9414028D2F0E94B4
:1006900021028C2F0E94440568EE73E080E090E018
:1006A0000E94B702DDCF613009F46FEF823061F054
:1006B00018F4813031F011C0833049F0843051F0AA
:1006C0000CC06ABB80E0089567BB80E0089564BBFE
:1006D00080E0089561BB80E0089581E0089568306E
:1006E00008F07FC0423008F07EC0823031F118F44B
:1006F000813039F07AC08330E1F1843009F455C09B
:1007000074C041110DC09AB321E030E002C0220F45
:10071000331F6A95E2F7822F809589238ABB0AC02E
:100720002AB381E090E002C0880F991F6A95E2F732
:10073000822B8ABB8ABB80E0089541110DC097B31C
:1007400021E030E002C0220F331F6A95E2F7822FCA
:100750008095892387BB0AC027B381E090E002C05F
:10076000880F991F6A95E2F7822B87BB87BB80E0D1
:10077000089541110DC094B321E030E002C0220F72
:10078000331F6A95E2F7822F8095892384BB0AC0C4
:1007900024B381E090E002C0880F991F6A95E2F7C8
:1007A000822B84BB84BB80E0089541110DC091B3BE
:1007B00021E030E002C0220F331F6A95E2F7822F5A
:1007C0008095892381BB0AC021B381E090E002C0FB
:1007D000880F991F6A95E2F7822B81BB81BB80E06D
:1007E000089582E0089583E0089581E008956830D7
:1007F00008F07BC0423008F07AC0823029F118F44A
:10080000813039F076C08330D1F1843009F452C0A0
:1008100070C041110DC02BB381E090E002C0880F81
:10082000991F6A95E2F7809582238BBB80E008953B
:100830002BB381E090E002C0880F991F6A95E2F720
:10084000822B8BBB80E0089541110DC028B381E05D
:1008500090E002C0880F991F6A95E2F78095822385
:1008600088BB80E0089528B381E090E002C0880F43
:10087000991F6A95E2F7822B88BB80E008954111A9
:100880000DC025B381E090E002C0880F991F6A95E2
:10089000E2F78095822385BB80E0089525B381E04F
:1008A00090E002C0880F991F6A95E2F7822B85BB02
:1008B00080E0089541110DC022B381E090E002C0B4
:1008C000880F991F6A95E2F78095822382BB80E0AA
:1008D000089522B381E090E002C0880F991F6A95C5
:1008E000E2F7822B82BB80E0089582E0089583E0E6
:1008F000089581E00895683078F5823091F018F419
:10090000813031F02BC08330A9F08430E1F026C073
:1009100089B390E002C0959587956A95E2F781705A
:10092000089586B390E002C0959587956A95E2F7A1
:100930008170089583B390E002C0959587956A957C
:10094000E2F78170089580B390E002C09595879595
:100950006A95E2F78170089583E0089582E0089532
:10096000423008F07BC0683008F07AC0823029F14C
:1009700018F4813039F076C08330D1F1843009F435
:1009800052C070C041110DC02BB381E090E002C095
:10099000880F991F6A95E2F7809582238BBB80E0D0
:1009A00008952BB381E090E002C0880F991F6A95EB
:1009B000E2F7822B8BBB80E0089541110DC028B374
:1009C00081E090E002C0880F991F6A95E2F7809558
:1009D000822388BB80E0089528B381E090E002C0C4
:1009E000880F991F6A95E2F7822B88BB80E00895F3
:1009F00041110DC025B381E090E002C0880F991F1E
:100A00006A95E2F78095822385BB80E0089525B33F
:100A100081E090E002C0880F991F6A95E2F7822B6F
:100A200085BB80E0089541110DC022B381E090E0C4
:100A300002C0880F991F6A95E2F78095822382BBD6
:100A400080E0089522B381E090E002C0880F991FF2
:100A50006A95E2F7822B82BB80E0089583E00895D7
:100A600082E0089581E00895549A539A56985798D1
:100A700055988091DA00867B86688093DA0080BD85
:100A800010BC83E389B908955D9BFECF8CB90895AE
:100A90009C018BB1881F8827881F11F08CB10895A5
:100AA00021503109B1F70895DB018F939F930E9484
:100AB0008605BF91AF91A29F800D911DA39F900DC0
:100AC000B29F900D11240895A1E21A2EAA1BBB1B00
:100AD000FD010DC0AA1FBB1FEE1FFF1FA217B3070A
:100AE000E407F50720F0A21BB30BE40BF50B661F20
:100AF000771F881F991F1A9469F7609570958095E4
:100B000090959B01AC01BD01CF0108950E94DA05CB
:100B1000A59F900DB49F900DA49F800D911D112451
:100B20000895E894DF93CF93FC01DB010E94DA057E
:100B30007F936F93E9019A01AC01BF93AF933F9309
:100B40002F93DF010E94DA0526F46C1B7D0B820BCC
:100B5000930B9E01EB01FC010E94E905AF91BF914F
:100B60002F913F910E94E905BE01CF01F9012F911C
:100B70003F91CF91DF91089597FB10F816940008EC
:100B80000F93083098F00850232F342F452F562FFD
:100B9000672F782F892F902DF4CF059497958795FF
:100BA0007795679557954795379527950A95AAF7AD
:100BB0000F910895A29FB001B39FC001A39F700D34
:100BC000811D1124911DB29F700D811D1124911D55
:100BD00008950E94DA05460F571FC81FD91F08F451
:080BE00031960895F894FFCF4F
:100BE8000302010004050607280F0102034104055A
:100BF80006420708094323002A44000A1F1F0E045F
:100C08000000040E1515040400000E1F1F1F000E1F
:100C1800000000040E1F0E040000040E1F1B11002C
:100C28000000111B0E040E1B11001F15151F1515B2
:100C38001F000E1D191F0E001F005265636569769F
:100C48006564204368617200202020202020202035
:0A0C58002020202020202020000092
:00000001FF
